:100000000C943A000C944F000C944F000C944F0049
:100010000C944F000C944F000C944F000C944F0024
:100020000C944F000C944F000C944F000C944F0014
:100030000C944F000C944F000C944F000C944F0004
:100040000C944F000C944F000C944F000C944F00F4
:100050000C944F00F810141130114C1168118411D8
:10006000A011BC1120124E127C12AA12D812061333
:100070003413621311241FBECFE5D8E0DEBFCDBF1D
:1000800010E0A0E6B0E0E2EFFDE202C005900D92C4
:10009000AA3BB107D9F70E9451000C94F7160C94B3
:1000A00000000F931F93CF93DF93CDB7DEB7C65AEF
:1000B000D1090FB6F894DEBF0FBECDBF1A821982E8
:1000C0001C821B821E821D8218861F821A86198638
:1000D0001C861B860E945C0A0E948B0B67E081E0F5
:1000E0000E94971041E060E082E00E94B51341E079
:1000F00061E082E00E94B51341E062E082E00E948C
:10010000B51341E063E082E00E94B51341E064E092
:1001100082E00E94B51341E065E082E00E94B513E1
:1001200041E065E082E00E94A01480E090E0A8EC4D
:10013000B3E48D879E87AF87B88B20E030E04AE735
:1001400055E46D857E858F8598890E941016DC01A7
:10015000CB01898B9A8BAB8BBC8B20E030E040E8E5
:100160005FE369897A898B899C890E948A15882333
:100170002CF481E090E09E8B8D8B3FC020E03FEF20
:100180004FE757E469897A898B899C890E940B160D
:1001900018164CF520E030E040E251E46D857E8594
:1001A0008F8598890E941016DC01CB01BC01CD011E
:1001B0000E948F15DC01CB019E8B8D8B0FC080E9D7
:1001C00091E0988F8F8B8F89988D0197F1F7988F99
:1001D0008F8B8D899E8901979E8B8D8B8D899E89B2
:1001E000892B69F714C069897A898B899C890E9457
:1001F0008F15DC01CB019E8B8D8B8D899E899A8F0B
:10020000898F898D9A8D0197F1F79A8F898F0E9436
:100210008B0B41E060E082E00E94A01480E090E05F
:10022000A8ECB2E48B8F9C8FAD8FBE8F20E030E0C6
:100230004AE755E46B8D7C8D8D8D9E8D0E94101646
:10024000DC01CB018F8F98A3A9A3BAA320E030E0F3
:1002500040E85FE36F8D78A189A19AA10E948A1579
:1002600088232CF481E090E09CA38BA33FC020E086
:100270003FEF4FE757E46F8D78A189A19AA10E94C3
:100280000B1618164CF520E030E040E251E46B8D7F
:100290007C8D8D8D9E8D0E941016DC01CB01BC01E2
:1002A000CD010E948F15DC01CB019CA38BA30FC055
:1002B00080E991E09EA38DA38DA19EA10197F1F706
:1002C0009EA38DA38BA19CA101979CA38BA38BA123
:1002D0009CA1892B69F714C06F8D78A189A19AA17F
:1002E0000E948F15DC01CB019CA38BA38BA19CA149
:1002F00098A78FA38FA198A50197F1F798A78FA32F
:1003000083E00E9401129C01C901880F991F880F88
:10031000991F820F931F892F9927869586959C8711
:100320008B8780E090E0A0E8BFE389A79AA7ABA7FE
:10033000BCA720E030E04AE755E469A57AA58BA583
:100340009CA50E941016DC01CB018DA79EA7AFA72C
:10035000B8AB20E030E040E85FE36DA57EA58FA557
:1003600098A90E948A1588232CF481E090E09AAB2A
:1003700089AB3FC020E03FEF4FE757E46DA57EA576
:100380008FA598A90E940B1618164CF520E030E0B6
:1003900040E251E469A57AA58BA59CA50E941016A0
:1003A000DC01CB01BC01CD010E948F15DC01CB012A
:1003B0009AAB89AB0FC080E991E09CAB8BAB8BA96A
:1003C0009CA90197F1F79CAB8BAB89A99AA90197DE
:1003D0009AAB89AB89A99AA9892B69F714C06DA535
:1003E0007EA58FA598A90E948F15DC01CB019AAB41
:1003F00089AB89A99AA99EAB8DAB8DA99EA90197BE
:10040000F1F79EAB8DAB83E00E9401129C01C90104
:10041000880F991F880F991F820F931F892F992783
:10042000869586959A83898340E060E082E00E9409
:10043000A01441E061E082E00E94A01480E090E01E
:10044000A8ECB2E48FAB98AFA9AFBAAF20E030E030
:100450004AE755E46FA978AD89AD9AAD0E941016B0
:10046000DC01CB018BAF9CAFADAFBEAF20E030E085
:1004700040E85FE36BAD7CAD8DAD9EAD0E948A150B
:10048000882344F421E030E0CE01CF96FC01318393
:1004900020835FC020E03FEF4FE757E46BAD7CADBA
:1004A0008DAD9EAD0E940B1618160CF044C020E0D6
:1004B00030E040E251E46FA978AD89AD9AAD0E9479
:1004C0001016DC01CB01BC01CD010E948F15DC01AF
:1004D000CB019E01215C3F4FF9019183808323C0B2
:1004E000CE018F5B9F4F20E931E0FC0131832083F7
:1004F000CE018F5B9F4FFC01808191810197F1F7C5
:100500009E012F5B3F4FF90191838083CE01CF96EF
:10051000FC01808191819C0121503109CE01CF964F
:10052000FC0131832083CE01CF96FC018081918133
:10053000892BB1F628C06BAD7CAD8DAD9EAD0E9410
:100540008F15DC01CB019E01215C3F4FF9019183A6
:100550008083CE018D5B9F4F9E01215C3F4FF9014F
:1005600020813181FC0131832083CE018D5B9F4F3F
:10057000FC01808191810197F1F79E012D5B3F4F36
:10058000F9019183808383E00E9401129C01C901DB
:10059000880F991F880F991F820F931F892F992702
:1005A000869586959C878B879E012B5B3F4F80E0CD
:1005B00090E0A0E8BFE3F90180839183A283B38335
:1005C0008E01075B1F4FCE018B5B9F4F20E030E019
:1005D0004AE755E4FC0160817181828193810E9428
:1005E0001016DC01CB01F80180839183A283B383D1
:1005F000CE01875B9F4F20E030E040E85FE3FC01E5
:1006000060817181828193810E948A1588234CF4D4
:10061000CE01835B9F4F21E030E0FC0131832083DA
:100620006DC0CE01875B9F4F20E03FEF4FE757E45F
:10063000FC0160817181828193810E940B161816E2
:100640000CF04AC0CE018B5B9F4F20E030E040E2CF
:1006500051E4FC0160817181828193810E941016B6
:10066000DC01CB018E01035B1F4FBC01CD010E9459
:100670008F15DC01CB01F8019183808324C0CE016A
:10068000815B9F4F20E931E0FC0131832083CE0163
:10069000815B9F4FFC01808191810197F1F79E0161
:1006A000215B3F4FF90191838083CE01835B9F4F94
:1006B0009E01235B3F4FF901208131812150310997
:1006C000FC0131832083CE01835B9F4FFC0180813D
:1006D0009181892BA1F62CC08E01035B1F4FCE01A7
:1006E000875B9F4FFC0160817181828193810E94B1
:1006F0008F15DC01CB01F80191838083CE018F5AE5
:100700009F4F9E01235B3F4FF90120813181FC0106
:1007100031832083CE018F5A9F4FFC0180819181CC
:100720000197F1F79E012F5A3F4FF9019183808382
:1007300083E00E9401129C01C901880F991F880F54
:10074000991F820F931F892F9927869586959C83E1
:100750008B8340E061E082E00E94A01441E062E00F
:1007600082E00E94A0149E012D5A3F4F80E090E04D
:10077000A8ECB2E4F90180839183A283B3838E0154
:10078000095A1F4FCE018D5A9F4F20E030E04AE7B3
:1007900055E4FC0160817181828193810E94101671
:1007A000DC01CB01F80180839183A283B383CE0166
:1007B000895A9F4F20E030E040E85FE3FC01608110
:1007C0007181828193810E948A1588234CF4CE0125
:1007D000855A9F4F21E030E0FC01318320836DC0BA
:1007E000CE01895A9F4F20E03FEF4FE757E4FC01CD
:1007F00060817181828193810E940B1618160CF022
:100800004AC0CE018D5A9F4F20E030E040E251E4D3
:10081000FC0160817181828193810E941016DC014C
:10082000CB018E01055A1F4FBC01CD010E948F15CF
:10083000DC01CB01F8019183808324C0CE01835A6F
:100840009F4F20E931E0FC0131832083CE01835AA0
:100850009F4FFC01808191810197F1F79E01235AFE
:100860003F4FF90191838083CE01855A9F4F9E01AE
:10087000255A3F4FF9012081318121503109FC0176
:1008800031832083CE01855A9F4FFC018081918165
:10089000892BA1F62CC08E01055A1F4FCE01895A13
:1008A0009F4FFC0160817181828193810E948F152D
:1008B000DC01CB01F80191838083CE01815A9F4FE7
:1008C0009E01255A3F4FF90120813181FC0131837E
:1008D0002083CE01815A9F4FFC0180819181019735
:1008E000F1F79E01215A3F4FF9019183808383E004
:1008F0000E9401129C01C901880F991F880F991F3E
:10090000820F931F892F9927869586959C878B87C1
:100910009E012F593F4F80E090E0A0E8BFE3F9012E
:1009200080839183A283B3838E010B591F4FCE0125
:100930008F599F4F20E030E04AE755E4FC01608189
:100940007181828193810E941016DC01CB01F80134
:1009500080839183A283B383CE018B599F4F20E084
:1009600030E040E85FE3FC01608171818281938126
:100970000E948A1588234CF4CE0187599F4F21E0AD
:1009800030E0FC01318320836DC0CE018B599F4F35
:1009900020E03FEF4FE757E4FC01608171818281E5
:1009A00093810E940B1618160CF04AC0CE018F5985
:1009B0009F4F20E030E040E251E4FC016081718112
:1009C000828193810E941016DC01CB018E010759B0
:1009D0001F4FBC01CD010E948F15DC01CB01F80136
:1009E0009183808324C0CE0185599F4F20E931E057
:1009F000FC0131832083CE0185599F4FFC0180810A
:100A000091810197F1F79E0125593F4FF90191839B
:100A10008083CE0187599F4F9E0127593F4FF9018F
:100A20002081318121503109FC0131832083CE01A5
:100A300087599F4FFC0180819181892BA1F62CC0A1
:100A40008E0107591F4FCE018B599F4FFC016081CA
:100A50007181828193810E948F15DC01CB01F801A5
:100A600091838083CE0183599F4F9E0127593F4F29
:100A7000F90120813181FC0131832083CE0183592A
:100A80009F4FFC01808191810197F1F79E012359CD
:100A90003F4FF9019183808383E00E9401129C0102
:100AA000C901880F991F880F991F820F931F892FE3
:100AB0009927869586959E838D8340E062E082E04B
:100AC0000E94A01441E063E082E00E94A0149E0115
:100AD00021593F4F80E090E0A8ECB2E4F901808317
:100AE0009183A283B3838E010D581F4FCE0181598C
:100AF0009F4F20E030E04AE755E4FC0160817181BE
:100B0000828193810E941016DC01CB01F801808361
:100B10009183A283B383CE018D589F4F20E030E0B4
:100B200040E85FE3FC0160817181828193810E94D2
:100B30008A1588234CF4CE0189589F4F21E030E07C
:100B4000FC01318320836DC0CE018D589F4F20E082
:100B50003FEF4FE757E4FC0160817181828193810F
:100B60000E940B1618160CF04AC0CE0181599F4FF7
:100B700020E030E040E251E4FC016081718182813B
:100B800093810E941016DC01CB018E0109581F4F82
:100B9000BC01CD010E948F15DC01CB01F8019183CE
:100BA000808324C0CE0187589F4F20E931E0FC01AB
:100BB00031832083CE0187589F4FFC018081918132
:100BC0000197F1F79E0127583F4FF90191838083E8
:100BD000CE0189589F4F9E0129583F4FF90120812E
:100BE000318121503109FC0131832083CE018958A4
:100BF0009F4FFC0180819181892BA1F62CC08E0131
:100C000009581F4FCE018D589F4FFC0160817181A3
:100C1000828193810E948F15DC01CB01F8019183C1
:100C20008083CE0185589F4F9E0129583F4FF9017F
:100C300020813181FC0131832083CE0185589F4F73
:100C4000FC01808191810197F1F79E0125583F4F6A
:100C5000F9019183808383E00E9401129C01C90104
:100C6000880F991F880F991F820F931F892F99272B
:100C7000869586959C878B879E0123583F4F80E001
:100C800090E0A0E8BFE3F90180839183A283B3835E
:100C90008E010F571F4FCE0183589F4F20E030E049
:100CA0004AE755E4FC0160817181828193810E9451
:100CB0001016DC01CB01F80180839183A283B383FA
:100CC000CE018F579F4F20E030E040E85FE3FC010A
:100CD00060817181828193810E948A1588234CF4FE
:100CE000CE018B579F4F21E030E0FC013183208300
:100CF0006DC0CE018F579F4F20E03FEF4FE757E485
:100D0000FC0160817181828193810E940B1618160B
:100D10000CF04AC0CE0183589F4F20E030E040E203
:100D200051E4FC0160817181828193810E941016DF
:100D3000DC01CB018E010B571F4FBC01CD010E947E
:100D40008F15DC01CB01F8019183808324C0CE0193
:100D500089579F4F20E931E0FC0131832083CE0188
:100D600089579F4FFC01808191810197F1F79E0186
:100D700029573F4FF90191838083CE018B579F4FB5
:100D80009E012B573F4FF9012081318121503109BC
:100D9000FC0131832083CE018B579F4FFC01808162
:100DA0009181892BA1F62CC08E010B571F4FCE01CC
:100DB0008F579F4FFC0160817181828193810E94D6
:100DC0008F15DC01CB01F80191838083CE01875719
:100DD0009F4F9E012B573F4FF90120813181FC012C
:100DE00031832083CE0187579F4FFC018081918101
:100DF0000197F1F79E0127573F4FF90191838083B7
:100E000083E00E9401129C01C901880F991F880F7D
:100E1000991F820F931F892F99278695869598870A
:100E20008F8340E063E082E00E94A01441E064E030
:100E300082E00E94A0149E0125573F4F80E090E081
:100E4000A8ECB2E4F90180839183A283B3838E017D
:100E500001571F4FCE0185579F4F20E030E04AE7F2
:100E600055E4FC0160817181828193810E9410169A
:100E7000DC01CB01F80180839183A283B383CE018F
:100E800081579F4F20E030E040E85FE3FC01608144
:100E90007181828193810E948A1588234CF4CE014E
:100EA0008D569F4F21E030E0FC01318320836DC0DF
:100EB000CE0181579F4F20E03FEF4FE757E4FC0101
:100EC00060817181828193810E940B1618160CF04B
:100ED0004AC0CE0185579F4F20E030E040E251E408
:100EE000FC0160817181828193810E941016DC0176
:100EF000CB018E010D561F4FBC01CD010E948F15F5
:100F0000DC01CB01F8019183808324C0CE018B5694
:100F10009F4F20E931E0FC0131832083CE018B56C5
:100F20009F4FFC01808191810197F1F79E012B5623
:100F30003F4FF90191838083CE018D569F4F9E01D3
:100F40002D563F4FF9012081318121503109FC019B
:100F500031832083CE018D569F4FFC01808191818A
:100F6000892BA1F62CC08E010D561F4FCE01815743
:100F70009F4FFC0160817181828193810E948F1556
:100F8000DC01CB01F80191838083CE0189569F4F0C
:100F90009E012D563F4FF90120813181FC013183A3
:100FA0002083CE0189569F4FFC018081918101975A
:100FB000F1F79E0129563F4FF9019183808383E029
:100FC0000E9401129C01C901880F991F880F991F67
:100FD000820F931F892F9927869586959C878B87EB
:100FE0009E0127563F4F80E090E0A0E8BFE3F90163
:100FF00080839183A283B3838E0103561F4FCE015A
:1010000087569F4F20E030E04AE755E4FC016081BD
:101010007181828193810E941016DC01CB01F8015D
:1010200080839183A283B383CE0183569F4F20E0B8
:1010300030E040E85FE3FC0160817181828193814F
:101040000E948A1588234CF4CE018F559F4F21E0D2
:1010500030E0FC01318320836DC0CE0183569F4F69
:1010600020E03FEF4FE757E4FC016081718182810E
:1010700093810E940B1618160CF04AC0CE018756B9
:101080009F4F20E030E040E251E4FC01608171813B
:10109000828193810E941016DC01CB018E010F55D5
:1010A0001F4FBC01CD010E948F15DC01CB01F8015F
:1010B0009183808324C0CE018D559F4F20E931E07C
:1010C000FC0131832083CE018D559F4FFC0180812F
:1010D00091810197F1F79E012D553F4FF9019183C1
:1010E0008083CE018F559F4F9E012F553F4FF901B1
:1010F0002081318121503109FC0131832083CE01CF
:101100008F559F4FFC0180819181892BA1F62CC0C6
:101110008E010F551F4FCE0183569F4FFC016081FA
:101120007181828193810E948F15DC01CB01F801CE
:1011300091838083CE018B559F4F9E012F553F4F4A
:10114000F90120813181FC0131832083CE018B554F
:101150009F4FFC01808191810197F1F79E012B55F2
:101160003F4FF9019183808383E00E9401129C012B
:10117000C901880F991F880F991F820F931F892F0C
:101180009927869586959A87898740E064E082E072
:101190000E94A01489819A81CC01A0E0B0E0BC013A
:1011A000CD010E946F108B819C81CC01A0E0B0E04A
:1011B000BC01CD010E946F108D819E81CC01A0E009
:1011C000B0E0BC01CD010E946F108F819885CC01E9
:1011D000A0E0B0E0BC01CD010E946F1089859A8526
:1011E000CC01A0E0B0E0BC01CD010E946F1089816C
:1011F0009A81892BC1F48B819C81892BA1F48D81EB
:101200009E81892B81F48F819885892B61F4898552
:101210009A85892B41F480EC0E94950B80E690E042
:101220000E94D50F3BC189819A81892BC1F48B81A2
:101230009C81892BA1F48D819E81049781F48F81FB
:101240009885049761F489859A85892B41F480EC0F
:101250000E94950B86E690E00E94D50F1FC1898100
:101260009A81892BC1F48B819C81892BA1F48D817A
:101270009E81892B81F48F819885049761F48985FB
:101280009A85892B41F480EC0E94950B81E790E0D0
:101290000E94D50F03C189819A810497C1F48B8183
:1012A0009C81892BA1F48D819E81049781F48F818B
:1012B0009885049761F489859A85049741F480ECB8
:1012C0000E94950B83E890E00E94D50FE7C08981CA
:1012D0009A810497C1F48B819C810497A1F48D813C
:1012E0009E81049781F48F819885049761F48985A4
:1012F0009A85049741F480EC0E94950B87E890E072
:101300000E94D50FCBC089819A81892B41F58B81B1
:101310009C81019741F08B819C81029721F08B8108
:101320009C810397E1F48D819E81019741F08D812D
:101330009E81029721F08D819E81039781F48F8198
:101340009885049761F489859A85049741F480EC27
:101350000E94950B8BE890E00E94D50F9FC0898179
:101360009A81019741F089819A81029721F08981C0
:101370009A81039701F58B819C81019741F08B81C4
:101380009C81029721F08B819C810397A1F48D8130
:101390009E81892B81F48F819885892B61F48985C1
:1013A0009A85892B41F480EC0E94950B8EE890E0A1
:1013B0000E94D50F73C089819A81892BC1F48B81DA
:1013C0009C810497A1F48D819E81049781F48F8183
:1013D0009885049761F489859A85049741F480EC97
:1013E0000E94950B86E990E00E94D50F57C0898135
:1013F0009A81049701F58B819C81019741F08B8143
:101400009C81029721F08B819C810397A1F48D81AF
:101410009E81049781F48F819885049761F4898572
:101420009A85049741F480EC0E94950B8FE990E037
:101430000E94D50F33C089819A81049741F58B8131
:101440009C81019741F08B819C81029721F08B81D7
:101450009C810397E1F48D819E81019741F08D81FC
:101460009E81029721F08D819E81039781F48F8167
:101470009885049761F489859A85049741F480ECF6
:101480000E94950B88EA90E00E94D50F07C080EC7F
:101490000E94950B8FEA90E00E94D50F1A82198264
:1014A0001C821B821E821D8218861F821A86198644
:1014B0001C861B860C949500CF93DF93CDB7DEB7C7
:1014C0006C970FB6F894DEBF0FBECDBF41E061E070
:1014D00081E00E94B51341E062E081E00E94B51313
:1014E00041E063E081E00E94B51341E064E080E008
:1014F0000E94B51341E065E080E00E94B51341E031
:1015000066E080E00E94B51341E067E080E00E9461
:10151000B51380E090E0A0E0B0E489839A83AB83C8
:10152000BC8320E030E04AE755E469817A818B8111
:101530009C810E941016DC01CB018D839E83AF83BA
:10154000B88720E030E040E85FE36D817E818F81E5
:1015500098850E948A1588232CF481E090E09A8770
:1015600089873FC020E03FEF4FE757E46D817E81E0
:101570008F8198850E940B1618164CF520E030E0FC
:1015800040E251E469817A818B819C810E9410162E
:10159000DC01CB01BC01CD010E948F15DC01CB0128
:1015A0009A8789870FC080E991E09C878B878B851C
:1015B0009C850197F1F79C878B8789859A85019790
:1015C0009A87898789859A85892B69F714C06D81E7
:1015D0007E818F8198850E948F15DC01CB019A87CF
:1015E000898789859A859E878D878D859E850197B8
:1015F000F1F79E878D8783E30E94950B82E30E941B
:10160000950B88E20E94950B81E00E94950B82E089
:101610000E94950B86E00E94950B8CE00E94950B32
:1016200080E090E0A0EAB0E48F87988BA98BBA8B1A
:1016300020E030E04AE755E46F85788989899A8906
:101640000E941016DC01CB018B8B9C8BAD8BBE8B6B
:1016500020E030E040E85FE36B897C898D899E89DA
:101660000E948A1588232CF481E090E0988F8F8B5C
:101670003FC020E03FEF4FE757E46B897C898D89BD
:101680009E890E940B1618164CF520E030E040E2CF
:1016900051E46F85788989899A890E941016DC0146
:1016A000CB01BC01CD010E948F15DC01CB01988FCD
:1016B0008F8B0FC080E991E09A8F898F898D9A8DE9
:1016C0000197F1F79A8F898F8F89988D0197988F5D
:1016D0008F8B8F89988D892B69F714C06B897C89D2
:1016E0008D899E890E948F15DC01CB01988F8F8B8D
:1016F0008F89988D9C8F8B8F8B8D9C8D0197F1F7A7
:101700009C8F8B8F6C960FB6F894DEBF0FBECDBF4B
:10171000DF91CF910895CF93DF93CDB7DEB781E00E
:101720000E94950BDF91CF910895CF93DF93CDB7B2
:10173000DEB7E9970FB6F894DEBF0FBECDBF89AF15
:1017400040E061E081E00E94A01440E062E081E0BE
:101750000E94A01440E063E081E00E94A01480E0B9
:1017600090E0A0E8BFE389839A83AB83BC8320E049
:1017700030E04AE755E469817A818B819C810E943F
:101780001016DC01CB018D839E83AF83B88720E0E8
:1017900030E040E85FE36D817E818F8198850E9413
:1017A0008A1588232CF481E090E09A8789873FC0CE
:1017B00020E03FEF4FE757E46D817E818F81988570
:1017C0000E940B1618164CF520E030E040E251E480
:1017D00069817A818B819C810E941016DC01CB018A
:1017E000BC01CD010E948F15DC01CB019A8789874E
:1017F0000FC080E991E09C878B878B859C85019742
:10180000F1F79C878B8789859A8501979A878987C5
:1018100089859A85892B69F714C06D817E818F81B6
:1018200098850E948F15DC01CB019A87898789856D
:101830009A859E878D878D859E850197F1F79E8776
:101840008D878BE390E029AD422F407F2BE330E082
:10185000F90120812F70242BFC01208341E063E0FB
:1018600081E00E94A01480E090E0A0E8BFE38F87B1
:10187000988BA98BBA8B20E030E04AE755E46F855E
:10188000788989899A890E941016DC01CB018B8B9B
:101890009C8BAD8BBE8B20E030E040E85FE36B8932
:1018A0007C898D899E890E948A1588232CF481E089
:1018B00090E0988F8F8B3FC020E03FEF4FE757E4D9
:1018C0006B897C898D899E890E940B1618164CF5B0
:1018D00020E030E040E251E46F85788989899A8977
:1018E0000E941016DC01CB01BC01CD010E948F15B6
:1018F000DC01CB01988F8F8B0FC080E991E09A8F2C
:10190000898F898D9A8D0197F1F79A8F898F8F89A9
:10191000988D0197988F8F8B8F89988D892B69F778
:1019200014C06B897C898D899E890E948F15DC018A
:10193000CB01988F8F8B8F89988D9C8F8B8F8B8D00
:101940009C8D0197F1F79C8F8B8F40E063E081E0E5
:101950000E94A0148BE390E029AD222F30E0229565
:101960003295307F3227207F3227422F2BE330E021
:10197000F90120812F70242BFC01208341E063E0DA
:1019800081E00E94A01480E090E0A0E8BFE38D8F8A
:101990009E8FAF8FB8A320E030E04AE755E46D8D0D
:1019A0007E8D8F8D98A10E941016DC01CB0189A33A
:1019B0009AA3ABA3BCA320E030E040E85FE369A1B9
:1019C0007AA18BA19CA10E948A1588232CF481E026
:1019D00090E09EA38DA33FC020E03FEF4FE757E488
:1019E00069A17AA18BA19CA10E940B1618164CF537
:1019F00020E030E040E251E46D8D7E8D8F8D98A126
:101A00000E941016DC01CB01BC01CD010E948F1594
:101A1000DC01CB019EA38DA30FC080E991E098A7C4
:101A20008FA38FA198A50197F1F798A78FA38DA1F8
:101A30009EA101979EA38DA38DA19EA1892B69F7DD
:101A400014C069A17AA18BA19CA10E948F15DC0111
:101A5000CB019EA38DA38DA19EA19AA789A789A53D
:101A60009AA50197F1F79AA789A740E063E081E082
:101A70000E94A01480E090E0A0E0B0E48BA79CA7B7
:101A8000ADA7BEA720E030E04AE755E46BA57CA5F2
:101A90008DA59EA50E941016DC01CB018FA798ABE7
:101AA000A9ABBAAB20E030E040E85FE36FA578A9CE
:101AB00089A99AA90E948A1588232CF481E090E0D4
:101AC0009CAB8BAB3FC020E03FEF4FE757E46FA5E7
:101AD00078A989A99AA90E940B1618164CF520E03E
:101AE00030E040E251E46BA57CA58DA59EA50E9447
:101AF0001016DC01CB01BC01CD010E948F15DC0169
:101B0000CB019CAB8BAB0FC080E991E09EAB8DAB62
:101B10008DA99EA90197F1F79EAB8DAB8BA99CA9CE
:101B200001979CAB8BAB8BA99CA9892B69F714C03F
:101B30006FA578A989A99AA90E948F15DC01CB010C
:101B40009CAB8BAB8BA99CA998AF8FAB8FA998ADA1
:101B50000197F1F798AF8FABE9960FB6F894DEBF17
:101B60000FBECDBFDF91CF910895CF93DF93CDB757
:101B7000DEB7E9970FB6F894DEBF0FBECDBF89AFD1
:101B800041E061E081E00E94A01440E062E081E079
:101B90000E94A01440E063E081E00E94A01480E075
:101BA00090E0A0E8BFE389839A83AB83BC8320E005
:101BB00030E04AE755E469817A818B819C810E94FB
:101BC0001016DC01CB018D839E83AF83B88720E0A4
:101BD00030E040E85FE36D817E818F8198850E94CF
:101BE0008A1588232CF481E090E09A8789873FC08A
:101BF00020E03FEF4FE757E46D817E818F8198852C
:101C00000E940B1618164CF520E030E040E251E43B
:101C100069817A818B819C810E941016DC01CB0145
:101C2000BC01CD010E948F15DC01CB019A87898709
:101C30000FC080E991E09C878B878B859C850197FD
:101C4000F1F79C878B8789859A8501979A87898781
:101C500089859A85892B69F714C06D817E818F8172
:101C600098850E948F15DC01CB019A878987898529
:101C70009A859E878D878D859E850197F1F79E8732
:101C80008D878BE390E029AD422F407F2BE330E03E
:101C9000F90120812F70242BFC01208341E063E0B7
:101CA00081E00E94A01480E090E0A0E8BFE38F876D
:101CB000988BA98BBA8B20E030E04AE755E46F851A
:101CC000788989899A890E941016DC01CB018B8B57
:101CD0009C8BAD8BBE8B20E030E040E85FE36B89EE
:101CE0007C898D899E890E948A1588232CF481E045
:101CF00090E0988F8F8B3FC020E03FEF4FE757E495
:101D00006B897C898D899E890E940B1618164CF56B
:101D100020E030E040E251E46F85788989899A8932
:101D20000E941016DC01CB01BC01CD010E948F1571
:101D3000DC01CB01988F8F8B0FC080E991E09A8FE7
:101D4000898F898D9A8D0197F1F79A8F898F8F8965
:101D5000988D0197988F8F8B8F89988D892B69F734
:101D600014C06B897C898D899E890E948F15DC0146
:101D7000CB01988F8F8B8F89988D9C8F8B8F8B8DBC
:101D80009C8D0197F1F79C8F8B8F40E063E081E0A1
:101D90000E94A0148BE390E029AD222F30E0229521
:101DA0003295307F3227207F3227422F2BE330E0DD
:101DB000F90120812F70242BFC01208341E063E096
:101DC00081E00E94A01480E090E0A0E8BFE38D8F46
:101DD0009E8FAF8FB8A320E030E04AE755E46D8DC9
:101DE0007E8D8F8D98A10E941016DC01CB0189A3F6
:101DF0009AA3ABA3BCA320E030E040E85FE369A175
:101E00007AA18BA19CA10E948A1588232CF481E0E1
:101E100090E09EA38DA33FC020E03FEF4FE757E443
:101E200069A17AA18BA19CA10E940B1618164CF5F2
:101E300020E030E040E251E46D8D7E8D8F8D98A1E1
:101E40000E941016DC01CB01BC01CD010E948F1550
:101E5000DC01CB019EA38DA30FC080E991E098A780
:101E60008FA38FA198A50197F1F798A78FA38DA1B4
:101E70009EA101979EA38DA38DA19EA1892B69F799
:101E800014C069A17AA18BA19CA10E948F15DC01CD
:101E9000CB019EA38DA38DA19EA19AA789A789A5F9
:101EA0009AA50197F1F79AA789A740E063E081E03E
:101EB0000E94A01480E090E0A0E0B0E48BA79CA773
:101EC000ADA7BEA720E030E04AE755E46BA57CA5AE
:101ED0008DA59EA50E941016DC01CB018FA798ABA3
:101EE000A9ABBAAB20E030E040E85FE36FA578A98A
:101EF00089A99AA90E948A1588232CF481E090E090
:101F00009CAB8BAB3FC020E03FEF4FE757E46FA5A2
:101F100078A989A99AA90E940B1618164CF520E0F9
:101F200030E040E251E46BA57CA58DA59EA50E9402
:101F30001016DC01CB01BC01CD010E948F15DC0124
:101F4000CB019CAB8BAB0FC080E991E09EAB8DAB1E
:101F50008DA99EA90197F1F79EAB8DAB8BA99CA98A
:101F600001979CAB8BAB8BA99CA9892B69F714C0FB
:101F70006FA578A989A99AA90E948F15DC01CB01C8
:101F80009CAB8BAB8BA99CA998AF8FAB8FA998AD5D
:101F90000197F1F798AF8FABE9960FB6F894DEBFD3
:101FA0000FBECDBFDF91CF910895CF93DF93CDB713
:101FB000DEB760970FB6F894DEBF0FBECDBF988B2B
:101FC0008F877DC08F859889FC0180810E94B50D27
:101FD00080E090E0A0E0B0E489839A83AB83BC8387
:101FE00020E030E04AE755E469817A818B819C8169
:101FF0000E941016DC01CB018D839E83AF83B887CE
:1020000020E030E040E85FE36D817E818F8198853C
:102010000E948A1588232CF481E090E09A878987B2
:102020003FC020E03FEF4FE757E46D817E818F8115
:1020300098850E940B1618164CF520E030E040E21F
:1020400051E469817A818B819C810E941016DC01A8
:10205000CB01BC01CD010E948F15DC01CB019A8719
:1020600089870FC080E991E09C878B878B859C8551
:102070000197F1F79C878B8789859A8501979A87C5
:10208000898789859A85892B69F714C06D817E813E
:102090008F8198850E948F15DC01CB019A878987F3
:1020A00089859A859E878D878D859E850197F1F715
:1020B0009E878D878F8598890196988B8F878F85CE
:1020C0009889FC018081882309F07CCF60960FB647
:1020D000F894DEBF0FBECDBFDF91CF910895CF93AF
:1020E000DF93CDB7DEB72E970FB6F894DEBF0FBEE5
:1020F000CDBF6B877C878D879E878B859C85AD85C3
:10210000BE852AE030E0AE014F5F5F4FBC01CD01DC
:102110000E94AB16CE0101960E94D50F2E960FB6E7
:10212000F894DEBF0FBECDBFDF91CF910895CF935E
:10213000DF9300D0CDB7DEB789836A838981882F8A
:1021400090E081309105C1F08230910541F1892BF9
:10215000C9F587E290E027E230E0F90120812F778E
:10216000FC01208387E290E027E230E0F901208142
:102170002F7BFC01208326C087E290E027E230E03D
:10218000F90120812F77FC01208387E290E027E28C
:1021900030E0F90120812064FC01208313C087E234
:1021A00090E027E230E0F90120812068FC012083E3
:1021B00087E290E027E230E0F90120812064FC0111
:1021C000208300008A81882F90E0092E000CAA0B42
:1021D000BB0B40E050E027E030E0841B950B281754
:1021E000390708F4E5C0865D9F4FFC010C94A516E5
:1021F00086E290E026E230E0F90120812B7FFC01AD
:10220000208386E290E026E230E0F90120812D7FF4
:10221000FC01208386E290E026E230E0F901208193
:102220002E7FFC012083C4C086E290E026E230E0ED
:10223000F90120812B7FFC01208386E290E026E2D9
:1022400030E0F90120812D7FFC01208386E290E0BF
:1022500026E230E0F90120812160FC012083A8C042
:1022600086E290E026E230E0F90120812B7FFC013C
:10227000208386E290E026E230E0F90120812260AE
:10228000FC01208386E290E026E230E0F901208123
:102290002E7FFC0120838CC086E290E026E230E0B5
:1022A000F90120812B7FFC01208386E290E026E269
:1022B00030E0F90120812260FC01208386E290E079
:1022C00026E230E0F90120812160FC01208370C00A
:1022D00086E290E026E230E0F90120812460FC01F2
:1022E000208386E290E026E230E0F90120812D7F14
:1022F000FC01208386E290E026E230E0F9012081B3
:102300002E7FFC01208354C086E290E026E230E07C
:10231000F90120812460FC01208386E290E026E21E
:1023200030E0F90120812D7FFC01208386E290E0DE
:1023300026E230E0F90120812160FC01208338C0D1
:1023400086E290E026E230E0F90120812460FC0181
:10235000208386E290E026E230E0F90120812260CD
:10236000FC01208386E290E026E230E0F901208142
:102370002E7FFC0120831CC086E290E026E230E044
:10238000F90120812460FC01208386E290E026E2AE
:1023900030E0F90120812260FC01208386E290E098
:1023A00026E230E0F90120812160FC012083000059
:1023B00086E290E026E230E0F90120812068FC010D
:1023C000208386E290E026E230E0F9012081277F39
:1023D000FC01208386E290E026E230E0F9012081D2
:1023E0002062FC01208387E290E027E230E0F901DF
:1023F00020812F7DFC0120830F900F90DF91CF91E2
:102400000895CF93DF9300D01F92CDB7DEB78B83B3
:102410001A8219828B81882F90E0092E000CAA0B5A
:10242000BB0B40E050E027E030E0841B950B281701
:10243000390708F475C18E5C9F4FFC010C94A516FA
:1024400087E290E027E230E0F90120812F7EFC0155
:10245000208387E290E027E230E0F9012081277FA6
:10246000FC01208387E290E027E230E0F90120813F
:102470002B7FFC01208387E290E027E230E0F90126
:1024800020812D7FFC01208387E290E027E230E06D
:10249000F90120812E7FFC01208342C187E290E078
:1024A00027E230E0F90120812F7EFC01208387E2C2
:1024B00090E027E230E0F9012081277FFC012083B2
:1024C00087E290E027E230E0F90120812B7FFC01D8
:1024D000208387E290E027E230E0F90120812D7F20
:1024E000FC01208387E290E027E230E0F9012081BF
:1024F0002160FC01208314C187E290E027E230E0F4
:10250000F90120812F7EFC01208387E290E027E201
:1025100030E0F9012081277FFC01208387E290E0F1
:1025200027E230E0F90120812B7FFC01208387E244
:1025300090E027E230E0F90120812260FC01208355
:1025400087E290E027E230E0F90120812E7FFC0154
:102550002083E6C087E290E027E230E0F9012081A5
:102560002F7EFC01208387E290E027E230E0F90132
:102570002081277FFC01208387E290E027E230E082
:10258000F90120812B7FFC01208387E290E027E284
:1025900030E0F90120812260FC01208387E290E095
:1025A00027E230E0F90120812160FC012083B8C0DE
:1025B00087E290E027E230E0F90120812F7EFC01E4
:1025C000208387E290E027E230E0F9012081277F35
:1025D000FC01208387E290E027E230E0F9012081CE
:1025E0002460FC01208387E290E027E230E0F901DB
:1025F00020812D7FFC01208387E290E027E230E0FC
:10260000F90120812E7FFC0120838AC087E290E0BF
:1026100027E230E0F90120812F7EFC01208387E250
:1026200090E027E230E0F9012081277FFC01208340
:1026300087E290E027E230E0F90120812460FC018C
:10264000208387E290E027E230E0F90120812D7FAE
:10265000FC01208387E290E027E230E0F90120814D
:102660002160FC0120835CC087E290E027E230E03B
:10267000F90120812F7EFC01208387E290E027E290
:1026800030E0F9012081277FFC01208387E290E080
:1026900027E230E0F90120812460FC01208387E2F9
:1026A00090E027E230E0F90120812260FC012083E4
:1026B00087E290E027E230E0F90120812E7FFC01E3
:1026C00020832EC087E290E027E230E0F9012081EC
:1026D0002F7EFC01208387E290E027E230E0F901C1
:1026E0002081277FFC01208387E290E027E230E011
:1026F000F90120812460FC01208387E290E027E239
:1027000030E0F90120812260FC01208387E290E023
:1027100027E230E0F90120812160FC0120830000E4
:1027200086E290E026E230E0F90120812064FC019D
:102730002083000086E290E0FC01808182958F700A
:10274000882F90E081709927892BA1F784E290E08F
:10275000FC01808191819A83898389819A810F907C
:102760000F900F90DF91CF910895CF93DF9300D01A
:102770001F92CDB7DEB789836A834B838B81882F05
:1027800090E0009709F46BC0019709F0D3C08981EC
:10279000882F90E08130910511F1823091051CF471
:1027A000892B41F0C7C08230910571F1039709F47C
:1027B00040C0C0C08AE390E02AE330E0F901208104
:1027C000622F2A81422F50E021E030E002C0220F28
:1027D000331F4A95E2F7262BFC0120833FC087E395
:1027E00090E027E330E0F9012081622F2A81422F17
:1027F00050E021E030E002C0220F331F4A95E2F79B
:10280000262BFC0120832AC084E390E024E330E0FF
:10281000F9012081622F2A81422F50E021E030E02F
:1028200002C0220F331F4A95E2F7262BFC012083BA
:1028300015C081E390E021E330E0F9012081622FAF
:102840002A81422F50E021E030E002C0220F331FE6
:102850004A95E2F7262BFC01208300006BC089819A
:10286000882F90E08130910519F1823091051CF498
:10287000892B41F05FC08230910581F1039709F403
:1028800043C058C08AE390E02AE330E0F901208198
:10289000622F2A81422F50E021E030E002C0220F57
:1028A000331F4A95E2F720952623FC01208342C07E
:1028B00087E390E027E330E0F9012081622F2A814D
:1028C000422F50E021E030E002C0220F331F4A9532
:1028D000E2F720952623FC0120832CC084E390E0BE
:1028E00024E330E0F9012081622F2A81422F50E059
:1028F00021E030E002C0220F331F4A95E2F7209515
:102900002623FC01208316C081E390E021E330E020
:10291000F9012081622F2A81422F50E021E030E02E
:1029200002C0220F331F4A95E2F720952623FC01AF
:10293000208300000F900F900F90DF91CF910895AA
:10294000CF93DF9300D01F92CDB7DEB789836A8320
:102950004B838B81813009F068C08981882F90E09A
:102960008130910511F1823091051CF4892B41F0E1
:10297000CBC08230910571F1039709F440C0C4C007
:102980008BE390E02BE330E0F9012081622F2A8174
:10299000422F50E021E030E002C0220F331F4A9561
:1029A000E2F7262BFC0120833FC088E390E028E378
:1029B00030E0F9012081622F2A81422F50E021E08E
:1029C00030E002C0220F331F4A95E2F7262BFC01AC
:1029D00020832AC085E390E025E330E0F9012081DF
:1029E000622F2A81422F50E021E030E002C0220F06
:1029F000331F4A95E2F7262BFC01208315C082E3A2
:102A000090E022E330E0F9012081622F2A81422FF9
:102A100050E021E030E002C0220F331F4A95E2F778
:102A2000262BFC01208300006FC08B81882309F0D6
:102A30006BC08981882F90E08130910519F1823037
:102A400091051CF4892B41F05FC08230910581F122
:102A5000039709F443C058C08BE390E02BE330E0C8
:102A6000F9012081622F2A81422F50E021E030E0DD
:102A700002C0220F331F4A95E2F720952623FC015E
:102A8000208342C088E390E028E330E0F901208110
:102A9000622F2A81422F50E021E030E002C0220F55
:102AA000331F4A95E2F720952623FC0120832CC092
:102AB00085E390E025E330E0F9012081622F2A814F
:102AC000422F50E021E030E002C0220F331F4A9530
:102AD000E2F720952623FC01208316C082E390E0D4
:102AE00022E330E0F9012081622F2A81422F50E059
:102AF00021E030E002C0220F331F4A95E2F7209513
:102B00002623FC01208300000F900F900F90DF918F
:102B1000CF9108950E94BE1508F481E008950E94A7
:102B2000EA1588F09F5798F0B92F9927B751B0F060
:102B3000E1F0660F771F881F991F1AF0BA95C9F741
:102B400014C0B13091F00E940416B1E008950C94C5
:102B50000416672F782F8827B85F39F0B93FCCF378
:102B6000869577956795B395D9F73EF490958095BE
:102B7000709561957F4F8F4F9F4F0895990F000873
:102B8000550FAA0BE0E8FEEF16161706E807F9073F
:102B9000C0F012161306E407F50798F0621B730BDA
:102BA000840B950B39F40A2661F0232B242B252B5B
:102BB00021F408950A2609F4A140A6958FEF811DFE
:102BC000811D089557FD9058440F551F59F05F3FE0
:102BD00071F04795880F97FB991F61F09F3F79F03F
:102BE00087950895121613061406551FF2CF4695C1
:102BF000F1DF08C0161617061806991FF1CF869543
:102C00007105610508940895E894BB276627772726
:102C1000CB0197F908950E94BE1508F48FEF08952F
:102C20000E9423160C9494160E94861638F00E9477
:102C30008D1620F0952311F00C947D160C948316BC
:102C400011240C9405160E94E21570F3959FC1F3B0
:102C5000950F50E0551F629FF001729FBB27F00D4A
:102C6000B11D639FAA27F00DB11DAA1F649F66279F
:102C7000B00DA11D661F829F2227B00DA11D621FEE
:102C8000739FB00DA11D621F839FA00D611D221FA8
:102C9000749F3327A00D611D231F849F600D211D8C
:102CA000822F762F6A2F11249F5750409AF0F1F00F
:102CB00088234AF0EE0FFF1FBB1F661F771F881F78
:102CC00091505040A9F79E3F510580F00C947D161D
:102CD0000C9405165F3FE4F3983ED4F38695779500
:102CE0006795B795F795E7959F5FC1F7FE2B880F1E
:102CF000911D9695879597F9089597F99F6780E8B4
:102D000070E060E008959FEF80EC089500240A943D
:102D10001616170618060906089500240A941216B6
:102D20001306140605060895092E0394000C11F4E9
:102D3000882352F0BB0F40F4BF2B11F460FF04C096
:102D40006F5F7F4F8F4F9F4F0895EE0FFF1F0590CE
:102D5000F491E02D09942532310520F4223010F051
:102D60000C94B616FA011082CA010895BB272A30C6
:102D700051F4992342F4BDE2909580957095619548
:102D80007F4F8F4F9F4F0C94C616BB27FA01A62F7B
:102D90006217710581059105330B30FB66F0AA2798
:102DA000660F771F881F991FAA1FA21710F0A21B7A
:102DB00063953850A9F7A05DAA3308F0A95DA193E7
:102DC00036F7B111B1931082CA010C94E716DC01F9
:102DD000FC01672F71917723E1F7329704C07C9152
:102DE0006D9370836291AE17BF07C8F30895F8948E
:022DF000FFCF13
:102DF20048454C4C4F0049204C4F564520594F55A1
:102E02000049205245414C4C59204C4F56452059BF
:102E12004F5500594F5500594553004E4F005045EC
:102E2200524645435400474F4F44204A4F420051B7
:102E3200455354494F4E3F00514F55544553004C52
:0A2E42006F6164696E672E2E0000B8
:00000001FF
